:10000000BBC100000C94DF0B0C940A0C0C94350C53
:100010000C94600C0C948B0C0C94B60C0C94E10CAE
:100020000C940C0DDAC10000D8C10000D6C100004C
:10003000D4C100000C949A14D0C10000CEC10000BD
:10004000CCC10000CAC10000C8C10000C6C1000088
:10005000C4C10000C2C10000C0C100000C94370D33
:10006000BCC100000C9431110C946711B6C10000A2
:10007000B4C10000B2C10000B0C10000AEC10000B8
:10008000ACC10000AAC10000A8C10000A6C10000C8
:100090000C94BD110C94F311A0C100009EC100008E
:1000A0009CC100009AC1000098C1000096C10000E8
:1000B00094C1000092C1000090C100008EC10000F8
:1000C0008CC100008AC100000C9429150C944912BF
:1000D0000C947F1282C100000C94D5120C940B1367
:1000E0007CC100008D0E920E970EA10EAB0E240F58
:1000F000B50EBD0EC50ECF0ED90EE30EF20EFC0EE0
:10010000240F060F100F1A0F480F4B0F3A0F3E0F18
:10011000440F820F4F0F530F590F5D0F610F670F81
:100120006B0F6F0F820F750F790F7D0F351DF61E48
:10013000671F6A1F3A1E6C1EF51C151DD91C441F33
:10014000331F401F6A1F6A1F6A1FC41C00000A0B6E
:1001500002090C0D0E080703040100000000000056
:10016000000000000000000000000000000000008F
:10017000000000000000000012111000000000004C
:10018000000000000000000000000000000000006F
:10019000000001021020200808102040102040809C
:1001A000020102010804020101020408102040803B
:1001B00080402010080402018004020180402010C9
:1001C0000804020108040201010204081020408012
:1001D00001020408102040800505050507050808F0
:1001E0000808020202020A0A0808040404040101C1
:1001F00001010101010103030303030303030407D6
:1002000007070C0C0C0C0C0C0C0C0202020206066C
:100210000606060606060B0B0B0B0B0B0B0B000062
:1002200020002300260029002C002F0032000001AE
:10023000000003010601090100002200250028003A
:100240002B002E00310034000201000005010801DE
:100250000B0100002100240027002A002D0030009F
:10026000330001010000040107010A0102001D3AE8
:100270002774694E53E8F5D2CF9C81A6BBCDD0F749
:10028000EAB9A4839E25381F02514C6B76879ABD2C
:10029000A0F3EEC9D46F7255481B06213C4A577033
:1002A0006D3E230419A2BF9885D6CBECF1130E291D
:1002B00034677A5D40FBE6C1DC8F92B5A8DEC3E40B
:1002C000F9AAB7908D362B0C11425F78659489AEF0
:1002D000B3E0FDDAC77C61465B0815322F594463F1
:1002E0007E2D30170AB1AC8B96C5D8FFE2263B1C99
:1002F00001524F6875CED3F4E9BAA7809DEBF6D1D1
:10030000CC9F82A5B8031E3924776A4D50A1BC9BAF
:1003100086D5C8EFF24954736E3D20071A6C7156AA
:100320004B1805223F8499BEA3F0EDCAD735280F9C
:1003300012415C7B66DDC0E7FAA9B4938EF8E5C292
:10034000DF8C91B6AB100D2A3764795E43B2AF886B
:1003500095C6DBFCE15A47607D2E3314097F624568
:10036000580B16312C978AADB0E3FED9C40090111A
:100370001C12A8123413A01311241FBECFEFD1E218
:10038000DEBFCDBF00E00CBF14E0A0E0B2E0E4E6C9
:10039000F5E600E00BBF02C007900D92A833B1074D
:1003A000D9F728E0A8E3B4E001C01D92A63FB20748
:1003B000E1F711E0CCEBD1E000E006C021970109A4
:1003C000802FFE010E942531C73BD10780E008073E
:1003D000A9F70E94E32D0C94B03212CE662311F0DF
:1003E00061E001C060E00C94830F662311F061E0CE
:1003F00001C060E00C94BF0F0E94EE0F21E0019756
:1004000009F020E0822F0895CF92DF92EF92FF92C1
:100410006B017C019F7720E030E040E859E50E94C5
:10042000EC2E87FF3AC020E030E040E05FE3C701F8
:10043000B6010E94893087FD0EC020E030E040E028
:100440005FE3C701B6010E94752EFF90EF90DF9029
:10045000CF900C94C12F20E030E040E05FEBC7016B
:10046000B6010E948930181654F420E030E0A9014A
:10047000C701B6010E948D306B017C010EC020E0E7
:1004800030E040E05FE3C701B6010E94742EFF90A8
:10049000EF90DF90CF900C94D92EC701B601FF905A
:1004A000EF90DF90CF900895E0913008F0913108FF
:1004B0008091CC089091CD08A091CE08B091CF0842
:1004C00080839183A283B38308952F923F924F92AA
:1004D0005F926F927F928F929F92AF92BF92CF92D4
:1004E000DF92EF92FF920F931F93CF93DF93CDB7DD
:1004F000DEB72E970FB6F894DEBF0FBECDBF80914A
:100500007F08909180088130910509F074C0809136
:10051000670890916808A0916908B0916A088F3FB8
:100520002FEF9207A207B20709F580916B0890910F
:100530006C08A0916D08B0916E08BC01CD016F5F91
:100540007F4F8F4F9F4F0E94842F20916F083091D3
:10055000700840917108509172080E948D3020E01F
:1005600030E040E85FE40E948D3030C0C0906F08FA
:10057000D0907008E0907108F0907208BC01CD0135
:100580006F5F7F4F8F4F9F4F0E94842FA70196016F
:100590000E948D302B013C0160916B0870916C08BA
:1005A00080916D0890916E080E94842FA70196019A
:1005B0000E948D3020E030E040E85FE40E948D3002
:1005C0009B01AC01C301B2010E94752E6093BB0771
:1005D0007093BC078093BD079093BE078091220360
:1005E000813001F58091F2029091F302A091F40222
:1005F000B091F5021FC0892B09F05DC0E091EB07B7
:10060000F091EC070190F081E02D80819181A28131
:10061000B381E0918208F091830880839183A28363
:10062000B38349C08091EE029091EF02A091F00255
:10063000B091F1028093BC089093BD08A093BE08CE
:10064000B093BF08809116030E94410EA0911E0333
:10065000B0911F039C010E942D316093D0087093CC
:10066000D1088093D2089093D3080E94842F20E071
:1006700030E040E858E30E948D309B01AC0160916E
:10068000DA027091DB028091DC029091DD020E941F
:10069000742E2091E6023091E7024091E8025091D9
:1006A000E9020E948D306093C0087093C108809366
:1006B000C2089093C308C090FE02D090FF02E09061
:1006C0000003F0900103A7019601609190087091DA
:1006D000910880919208909193080E94EC2E8823B3
:1006E00061F1C701B6018ED7882361F06091FE02E7
:1006F0007091FF02809100039091010383D78111D3
:100700000CC013C06091FE027091FF028091000343
:1007100090910103A0D78111E9CF8090FE029090C3
:10072000FF02A0900003B090010380929008909285
:100730009108A0929208B092930883E05DDE8093C6
:10074000D908E0907F08F090800891E0E916F10464
:10075000E1F581110AC041E090E02091BB08211130
:1007600001C040E0242F392F02C020E030E0809308
:10077000BB08232B81F08091020390910303A09189
:100780000403B09105038093A7079093A807A09353
:10079000A907B093AA072091C0083091C1084091E1
:1007A000C2085091C3086091DE027091DF0280910F
:1007B000E0029091E1020E948D306093C408709332
:1007C000C5088093C6089093C708009194081091BB
:1007D0009508A0919608AD83B0919708B983E091F0
:1007E0008208F091830880809180A280B380A50167
:1007F0009401B801CD010E94893087FD0EC0A5018A
:10080000940160919C0870919D0880919E08909140
:100810009F080E94893087FF51C020909C0830902B
:100820009D08C0909E08D0909F089101A601B80134
:100830008D8199810E94EC2EA501940187FF07C04C
:10084000B101C6010E94EC2E87FD11C007C0B8019E
:100850008D8199810E94893087FF09C04090980856
:100860005090990860909A0870909B080BC0409037
:10087000A0085090A1086090A2087090A308810180
:10088000CD82D98298014D815981C501B4010E9460
:10089000742E4B015C01A30192016091C408709118
:1008A000C5088091C6089091C7080E94742EA501C2
:1008B00094010E94F02E4B015C0103C0812C912C0D
:1008C000540180912303813089F48091BC08909178
:1008D000BD08A091BE08B091BF088093C80890934E
:1008E000C908A093CA08B093CB0849C02091A707B4
:1008F0003091A8074091A9075091AA076091C008BC
:100900007091C1088091C2089091C3080E94752E11
:100910009B01AC01C501B4010E94752E4B015C0125
:100920004090F6025090F7026090F8027090F90241
:10093000A30192010E948930181684F04090FA02B7
:100940005090FB026090FC027090FD02A3019201A6
:10095000C501B4010E94EC2E87FF09C04092C8086F
:100960005092C9086092CA087092CB0808C0809261
:10097000C8089092C908A092CA08B092CB0880908B
:100980000A0390900B03A0900C03B0900D032091EC
:10099000C8083091C9084091CA085091CB086091AD
:1009A00006037091070380910803909109030E9448
:1009B0008D30A50194010E94F02E26DDA501940141
:1009C0000E948D304B015C0120E030E040E853E4B0
:1009D0000E94EC2E87FF13C020E030E0A901C50182
:1009E000B4010E94893087FD07C0C501B4010E948F
:1009F000582F6093D80806C01092D80803C08FEF14
:100A00008093D808EA94EF2809F084C06091D80850
:100A100070E08091EA020E94660E80911A030E94A3
:100A2000410EA0912003B09121039C010E942D3121
:100A30006093D4087093D5088093D6089093D70814
:100A40002091E2023091E3024091E4025091E502EC
:100A500060E070E080E89FE30E94F02E2091C008E3
:100A60003091C1084091C2085091C3080E948D3056
:100A70006093CC087093CD088093CE089093CF08F4
:100A8000C0900E03D0900F03E0901003F09011037C
:100A900020E030E040E853E4C701B6010E94EC2EAC
:100AA00087FF0EC020E030E0A901C701B6010E9417
:100AB000893087FD07C0C701B6010E94582F03C0C7
:100AC0006FEF01C060E087E090DCC0901203D0902F
:100AD0001303E0901403F090150320E030E040E8A9
:100AE00053E4C701B6010E94EC2E87FF0EC020E040
:100AF00030E0A901C701B6010E94893087FD07C017
:100B0000C701B6010E94582F03C06FEF01C060E01B
:100B100088E06BDC80917F0890918008019709F054
:100B2000A2C0C0909408D0909508E0909608F090EC
:100B300097084090E2085090E3086090E4087090B5
:100B4000E508A3019201C701B6010E94EC2E0091B5
:100B5000820810918308811110C0F8018081918171
:100B6000A281B3818093940890939508A0939608EE
:100B7000B0939708E8E9F8E029C080909C0890902D
:100B80009D08A0909E08B0909F08A3019201C50106
:100B9000B4010E94EC2E811110C0F8018081918176
:100BA000A281B38180939C0890939D08A0939E0896
:100BB000B0939F08E0EAF8E009C0A5019401C701DD
:100BC000B6010E94EC2E87FDC8CFE7CF8091C40804
:100BD0009091C508A091C608B091C7088083918301
:100BE000A283B38382E090E096D5E0918208F091F1
:100BF0008308408151816281738180E090E087D5D4
:100C000080917F0890918008019769F56091730841
:100C10007091740880917508909176080E94842FD5
:100C20006B017C0160917708709178088091790858
:100C300090917A080E94842F20E030E040E85FE441
:100C40000E948D309B01AC01C701B6010E94752E38
:100C50002DEC3CEC4CE45DE30E948D30AB01BC011B
:100C600081E090E054D580917F08909180080197B1
:100C700009F01AC280907B0890907C08A0907D08B3
:100C8000B0907E0820E030E040E85FEBC501B401A1
:100C90000E94EC2E882309F448C06091730870917B
:100CA000740880917508909176080E94842F6B01DA
:100CB0007C01609177087091780880917908909113
:100CC0007A080E94842F20E030E040E85FE40E9430
:100CD0008D309B01AC01C701B6010E94752E2DEC31
:100CE0003CEC4CE45DE30E948D306B017C019B0188
:100CF000AC01C501B4010E94742E4B015C0120E0DF
:100D000030E040E054E3C701B6010E948D309B0102
:100D1000AC01C501B4010E948930181634F08AE391
:100D200093E09093AC078093AB0780918108882370
:100D300031F08AE393E09093AC078093AB07E091A6
:100D4000EB07F091EC070190F081E02D408051809D
:100D5000628073808091BB079091BC07A091BD0712
:100D6000B091BE0789879A87AB87BC87E091BF07A0
:100D7000F091C007C080D180E280F380E091EF075E
:100D8000F091F007A081B181BE87AD87E091B307F4
:100D9000F091B40720803180028113818481958194
:100DA0009E838D83A681B781B887AF83E091B10719
:100DB000F091B20711821082ED85FE8580819181CC
:100DC000A281B381F10180839183A283B383E091F7
:100DD000E907F091EA071183008366DB20E030E049
:100DE00040E05FE3C701B6010E948D304B015C011A
:100DF000D8012D913D914D915C910E948D309B01C8
:100E0000AC01F10160817181828193810E94752E14
:100E1000AD85BE856D937D938D939C931397E091E3
:100E2000EB07F091EC07808191819A838983A5017A
:100E30009401C301B2010E94752EA981BA816D93FC
:100E40007D938D939C931397E091E907F091EA07C6
:100E50008D819E819183808338DB26DB20E030E02A
:100E600040E45FE3C701B6010E948D304B015C0195
:100E700020E030E0A901C701B6010E948D30D80101
:100E80002D913D914D915C910E948D3069837A83C3
:100E90008B839C83ED81FE8120813181428153814E
:100EA000C501B4010E948D309B01AC0169817A813A
:100EB0008B819C810E94752E9B01AC01D1016D91AB
:100EC0007D918D919C910E94752EED85FE856083AC
:100ED000718382839383E091EB07F091EC0780812B
:100EE00091819A838983A5019401C301B2010E9473
:100EF000752EA981BA816D937D938D939C931397E1
:100F0000E091E907F091EA078F81988591838083CA
:100F1000DCDACADA29E33EE843E65EE3C701B6015C
:100F20000E948D30D8012D913D914D915C910E9490
:100F30008D304B015C012BEA3AEA4AEA5EE3C701D5
:100F4000B6010E948D30ED81FE8120813181428188
:100F500053810E948D309B01AC01C501B4010E94F8
:100F6000752E4B015C0129E33EE843EE5EE3C701C9
:100F7000B6010E948D30AF81B8852D913D914D9184
:100F80005C910E948D309B01AC01C501B4010E94AF
:100F9000752E9B01AC01F101608171818281938189
:100FA0000E94752EAD85BE856D937D938D939C9328
:100FB0001397E091EB07F091EC070190F081E02DA1
:100FC00089859A85AB85BC8580839183A283B38311
:100FD000E091B107F091B20781E090E091838083C6
:100FE0008091670890916808A0916908B0916A089B
:100FF0000196A11DB11D8093670890936808A09386
:101000006908B0936A08892B8A2B8B2B99F48091FD
:101010006B0890916C08A0916D08B0916E080196D4
:10102000A11DB11D80936B0890936C08A0936D086F
:10103000B0936E088091BB079091BC07A091BD074B
:10104000B091BE07E0918208F0918308808391837C
:10105000A283B3838091730890917408A09175085E
:10106000B09176080196A11DB11D809373089093ED
:101070007408A0937508B0937608892B8A2B8B2B64
:1010800099F48091770890917808A0917908B091AF
:101090007A080196A11DB11D809377089093780876
:1010A000A0937908B0937A082E960FB6F894DEBF15
:1010B0000FBECDBFDF91CF911F910F91FF90EF90A9
:1010C000DF90CF90BF90AF909F908F907F906F9068
:1010D0005F904F903F902F900895CF92DF92EF92C4
:1010E000FF92CF9384E090E056D2EBEAF7E081EEF6
:1010F000DF011D928A95E9F78FE798E09093B20798
:101100008093B10782E898E09093EC078093EB0717
:101110008FE698E09093C0078093BF0780E398E044
:101120009093EA078093E9078AE298E09093F007AA
:101130008093EF078FE598E09093EE078093ED079B
:1011400081E698E09093F2078093F1078CE298E0B3
:101150009093F4078093F3078EE298E09093F6075C
:101160008093F507F0931608E0931508F093B00705
:10117000E093AF0781E090E09093800880937F0830
:1011800087E398E090934808809347088BE398E0C2
:1011900090934A08809349088FE398E090934C0815
:1011A00080934B0883E498E090934E0880934D0819
:1011B00087EA97E090932B0880932A0887E498E0C9
:1011C0009093B4078093B3078EE493E09093B607AF
:1011D0008093B50724E838E0309383082093820891
:1011E00080E090E0ACE8B2E480937B0890937C08C8
:1011F000A0937D08B0937E088DEC9CECACE4BDE33D
:1012000080936F0890937008A0937108B093720850
:1012100084EA94E7ACE3B8E680934F0890935008D3
:10122000A0935108B09352088AE193EAA9ECB3EB7A
:101230008093530890935408A0935508B093560890
:1012400084EC97E2A1E6BDEE80935708909358088E
:10125000A0935908B0935A088EE591E1ACEBB1EC3C
:1012600080935B0890935C08A0935D08B0935E0840
:1012700088E594E09093AE078093AD078AE494E00C
:10128000909359048093580485ED93E090934B0418
:1012900080934A0490934D0480934C0490934F04A0
:1012A00080934E0490935104809350049093530480
:1012B0008093520490935504809354049093570460
:1012C0008093560485E698E090935D0480935C04D7
:1012D0008FE498E090935B0480935A0430935F040A
:1012E00020935E048EE1ECEBF8E0DF011D928A951D
:1012F000E9F71092A7071092A8071092A907109279
:10130000AA078FE2ECE8F8E0DF011D928A95E9F781
:10131000E8E3F4E082E1DF011D928A95E9F7F093BA
:101320006608E093650884E190E090933904809327
:10133000380482EB92E090933B0480933A048AE86D
:1013400092E090933D0480933C048EE392E090936E
:101350003F0480933E048AE092E09093410480939E
:1013600040046091160370911703809118039091C7
:1013700019030E941D1510928C0810928D0810926E
:101380008E0810928F0881E08093BA086091FE0267
:101390007091FF02809100039091010333D1882363
:1013A00061F06091FE027091FF02809100039091C4
:1013B000010328D181110CC013C06091FE0270910D
:1013C000FF02809100039091010345D18111E9CF83
:1013D000C090FE02D090FF02E0900003F090010365
:1013E000C0929008D0929108E0929208F0929308EF
:1013F000C12CD12C7601C394C0928C08D0928D0858
:10140000E0928E08F0928F0860E083E00E94EE0187
:1014100061E08091EA0277D560911A0370911B0315
:1014200080911C0390911D030E941D15C1E0C09383
:10143000B908C092B408D092B508E092B608F0920C
:10144000B70861E087E00E94EE01C093B808C0923F
:10145000B008D092B108E092B208F092B30861E00F
:1014600088E00E94EE0183E08093BB088091020334
:1014700090910303A0910403B09105038093A70703
:101480009093A807A093A907B093AA078091E208B8
:101490009091E308A091E408B091E5088093940846
:1014A00090939508A0939608B093970880939C0812
:1014B00090939D08A0939E08B0939F08CF91FF90B2
:1014C000EF90DF90CF90089580918C0890918D08D7
:1014D000A0918E08B0918F080197A105B10561F424
:1014E00082E090E0A0E0B0E080938C0890938D08BB
:1014F000A0938E08B0938F088091B4089091B5089E
:10150000A091B608B091B7080197A105B10561F4A3
:1015100082E090E0A0E0B0E08093B4089093B5083A
:10152000A093B608B093B7088091B0089091B10825
:10153000A091B208B091B3080197A105B10561F47B
:1015400082E090E0A0E0B0E08093B0089093B10812
:10155000A093B208B093B308089560E070E080E80B
:101560009FE7089560E070E080E89FE7089560E0FD
:1015700070E080E89FEF089560E070E080E89FEF02
:10158000089560E070E080EC9FEF089560E070E007
:1015900080EC9FEF0895F5DF6093E6087093E7080D
:1015A0008093E8089093E908F1DF6093DA0870937C
:1015B000DB088093DC089093DD08CFDF6093E208BE
:1015C0007093E3088093E4089093E508CBDF609381
:1015D000DE087093DF088093E0089093E108C7DF8E
:1015E0006093EA087093EB088093EC089093ED0801
:1015F000C3DF6093EE087093EF088093F008909338
:10160000F1080895CF92DF92EF92FF92CF936B0192
:101610007C012091E2083091E3084091E408509168
:10162000E5080E94EC2EC1E0882371F02091EA08C1
:101630003091EB084091EC085091ED08C701B601DC
:101640000E94EC2E8111C0E08C2FCF91FF90EF9083
:10165000DF90CF900895CF93C1E09B01AC010E9431
:10166000EC2E811101C0C0E08C2FCF910895EF9234
:10167000FF920F931F93CF93DF937C018B01EA01BD
:101680000E944519811121C0809124039091250366
:10169000049711F183E090E0909325038093240355
:1016A0001BC098819111F0CF28ED38EB45E050E058
:1016B00060E070E0CB010E94D01BAE01B801C70111
:1016C0000E94DE1BC8010E94AB1B809164049091B4
:1016D0006504892B31F3D8CFDF91CF911F910F9102
:1016E000FF90EF900895CF93DF93209124033091E2
:1016F00025032430310541F0EB010E94DE1BCE01B1
:10170000DF91CF910C94AB1BDF91CF9108950C9496
:10171000FA1F0C94EF1F0C94DD1F0C94BB1B0C9450
:10172000821F089560E070E080E090E00C94201942
:101730000895AF92BF92CF92DF92EF92FF920F93F4
:101740001F93CF93DF931F921F92CDB7DEB75C013B
:1017500069017A018B0180E090E0C114D104E104B9
:10176000F104F1F0C114D10421E0E206F10410F417
:10177000A60102C04FEF5FEF9E012F5F3F4FB80100
:10178000C5010E949B208F3F2FEF920749F02981CE
:101790003A81C21AD30AE108F108020F131FDDCF04
:1017A0000F900F90DF91CF911F910F91FF90EF90CD
:1017B000DF90CF90BF90AF900895089508951F9245
:1017C0000F920FB60F9211240BB60F922F933F93E7
:1017D0004F935F936F937F938F939F93AF93BF9339
:1017E000EF93FF93E0912A03F0912B031995FF915A
:1017F000EF91BF91AF919F918F917F916F915F9189
:101800004F913F912F910F900BBE0F900FBE0F90F5
:101810001F9018951F920F920FB60F9211240BB6BE
:101820000F922F933F934F935F936F937F938F9379
:101830009F93AF93BF93EF93FF93E0912C03F091AD
:101840002D031995FF91EF91BF91AF919F918F91CA
:101850007F916F915F914F913F912F910F900BBEB0
:101860000F900FBE0F901F9018951F920F920FB6FA
:101870000F9211240BB60F922F933F934F935F93C8
:101880006F937F938F939F93AF93BF93EF93FF9348
:10189000E0912E03F0912F031995FF91EF91BF91E5
:1018A000AF919F918F917F916F915F914F913F91F8
:1018B0002F910F900BBE0F900FBE0F901F90189599
:1018C0001F920F920FB60F9211240BB60F922F9307
:1018D0003F934F935F936F937F938F939F93AF93B8
:1018E000BF93EF93FF93E0913003F091310319958B
:1018F000FF91EF91BF91AF919F918F917F916F91E8
:101900005F914F913F912F910F900BBE0F900FBEA3
:101910000F901F9018951F920F920FB60F921124DF
:101920000BB60F922F933F934F935F936F937F93D9
:101930008F939F93AF93BF93EF93FF93E091260311
:10194000F09127031995FF91EF91BF91AF919F916E
:101950008F917F916F915F914F913F912F910F9058
:101960000BBE0F900FBE0F901F9018951F920F92F5
:101970000FB60F9211240BB60F922F933F934F93F4
:101980005F936F937F938F939F93AF93BF93EF93E7
:10199000FF93E0912803F09129031995FF91EF91AE
:1019A000BF91AF919F918F917F916F915F914F9177
:1019B0003F912F910F900BBE0F900FBE0F901F9075
:1019C00018951F920F920FB60F9211240BB60F921B
:1019D0002F933F934F935F936F937F938F939F9337
:1019E000AF93BF93EF93FF93E0913203F0913303F2
:1019F0001995FF91EF91BF91AF919F918F917F9139
:101A00006F915F914F913F912F910F900BBE0F906F
:101A10000FBE0F901F9018951F920F920FB60F9246
:101A200011240BB60F922F933F934F935F936F93B5
:101A30007F938F939F93AF93BF93EF93FF93E09127
:101A40003403F09135031995FF91EF91BF91AF9158
:101A50009F918F917F916F915F914F913F912F91C6
:101A60000F900BBE0F900FBE0F901F9018951F92F6
:101A70000F920FB60F9211242F933F938F939F9342
:101A8000AF93BF938091670490916804A09169041B
:101A9000B0916A043091660423E0230F2D3720F4BF
:101AA0000196A11DB11D05C026E8230F0296A11DB8
:101AB000B11D209366048093670490936804A093FB
:101AC0006904B0936A0480916B0490916C04A091B6
:101AD0006D04B0916E040196A11DB11D80936B043D
:101AE00090936C04A0936D04B0936E04BF91AF917A
:101AF0009F918F913F912F910F900FBE0F901F904C
:101B000018953FB7F89480916B0490916C04A09164
:101B10006D04B0916E0426B5A89B05C02F3F19F047
:101B20000196A11DB11D3FBFBA2FA92F982F88275D
:101B3000820F911DA11DB11DBC01CD0142E0660FB8
:101B4000771F881F991F4A95D1F708958F929F920A
:101B5000AF92BF92CF92DF92EF92FF926B017C0126
:101B6000D0DF4B015C01C114D104E104F104F1F0B8
:101B700024DEC7DFDC01CB0188199909AA09BB095A
:101B8000883E9340A105B10570F321E0C21AD10847
:101B9000E108F10888EE880E83E0981EA11CB11CB4
:101BA000C114D104E104F10421F7DDCFFF90EF90DF
:101BB000DF90CF90BF90AF909F908F9008957894D2
:101BC00084B5826084BD84B5816084BD85B5826042
:101BD00085BD85B5816085BDEEE6F0E080818160E0
:101BE0008083E1E8F0E010828081826080838081E0
:101BF00081608083E0E8F0E0808181608083E1EBB8
:101C0000F0E0808184608083E0EBF0E0808181609F
:101C10008083E1E9F0E0808182608083808181605F
:101C20008083E0E9F0E0808181608083E1EAF0E098
:101C3000808182608083808181608083E0EAF0E03F
:101C4000808181608083E1E2F1E080818260808335
:101C5000808181608083E0E2F1E080818160808327
:101C6000EAE7F0E080818460808380818260808305
:101C70008081816080838081806880831092C10030
:101C80000895863308F0865390917B00282F2870A2
:101C9000977F922B90937B0087702091360390E47E
:101CA000299F90011124822B80937C0080917A00DF
:101CB000806480937A0080917A0086FDFCCF8091C9
:101CC00078002091790090E0922B08951F93CF9394
:101CD000DF93182FEB0161E016D1209711F460E03B
:101CE00004C0CF3FD10531F461E0812FDF91CF9166
:101CF0001F9145C1E12FF0E0E45BFE4FE4914E2FD0
:101D000050E0FA013197E231F10508F09DC08827D3
:101D1000EE58FF4F8F4F0C94253184B5806884BDF9
:101D2000C7BD97C084B5806284BDC8BD92C0809194
:101D30008000806880938000D0938900C0938800E1
:101D400088C080918000806280938000D0938B0057
:101D5000C0938A007EC0809180008860809380005C
:101D6000D0938D00C0938C0074C08091B0008068C7
:101D70008093B000C093B3006CC08091B0008062CB
:101D80008093B000C093B40064C0809190008068DC
:101D900080939000D0939900C09398005AC080918E
:101DA0009000806280939000D0939B00C0939A0033
:101DB00050C080919000886080939000D0939D00E7
:101DC000C0939C0046C08091A00080688093A000D2
:101DD0008091A0008F7B8093A000D093A900C09336
:101DE000A80037C08091A00080628093A000D093AB
:101DF000AB00C093AA002DC08091A00088608093A2
:101E0000A000D093AD00C093AC0023C0809120010E
:101E1000806880932001D0932901C093280119C0C4
:101E200080912001806280932001D0932B01C09388
:101E30002A010FC080912001886080932001D093F7
:101E40002D01C0932C0105C0C038D1050CF04CCF3A
:101E500046CFDF91CF911F91089590E0FC0131971B
:101E6000E231F10508F04EC08827EC57FF4F8F4F45
:101E70000C942531809180008F7703C08091800081
:101E80008F7D80938000089580918000877FF9CFB7
:101E900084B58F7702C084B58F7D84BD089580910D
:101EA000B0008F7703C08091B0008F7D8093B00029
:101EB0000895809190008F7707C0809190008F7D6A
:101EC00003C080919000877F809390000895809157
:101ED000A0008F7707C08091A0008F7D03C0809104
:101EE000A000877F8093A0000895809120018F77C4
:101EF00007C0809120018F7D03C080912001877FE2
:101F0000809320010895CF93DF9390E0FC01EE567B
:101F1000FE4F2491FC01E852FE4F8491882361F129
:101F200090E0880F991FFC01EE5AFD4FC591D491A6
:101F3000FC01E85CFD4FA591B491611109C09FB708
:101F4000F8948881209582238883EC912E230BC0FE
:101F5000623061F49FB7F8943881822F8095832393
:101F60008883EC912E2B2C939FBF06C08FB7F894DB
:101F7000E8812E2B28838FBFDF91CF9108951F9387
:101F8000CF93DF93282F30E0F901E45BFE4F84917B
:101F9000F901EE56FE4FD491F901E852FE4FC4917B
:101FA000CC23C1F0162F811158DFEC2FF0E0EE0F9B
:101FB000FF1FE85CFD4FA591B4918FB7F894111104
:101FC00005C09C91ED2FE095E92302C0EC91ED2B2B
:101FD000EC938FBFDF91CF911F910895CF93DF9343
:101FE000282F30E0F901E45BFE4F8491F901EE56B1
:101FF000FE4FD491F901E852FE4FC491CC2389F0F1
:1020000081112BDFEC2FF0E0EE0FFF1FE25EFD4FA2
:10201000A591B491EC91ED2381E090E021F480E072
:1020200002C080E090E0DF91CF910895FC01918D96
:10203000228D892F90E0805C9F4F821B91098F73C6
:1020400099270895FC01918D828D981731F0828D2A
:10205000E80FF11D858D90E008958FEF9FEF0895B3
:10206000FC01918D828D981761F0828DDF01A80FA0
:10207000B11D5D968C91928D9F5F9F73928F90E0C2
:1020800008958FEF9FEF0895FC01848DDF01A80F65
:10209000B11DA35ABF4F2C91848D90E001968F7390
:1020A0009927848FA689B7892C93A089B1898C91AF
:1020B00080648C93938D848D981306C00288F38975
:1020C000E02D80818F7D80830895CF93DF93EC0195
:1020D000888D8823C1F0EA89FB89808185FD05C050
:1020E000A889B9898C9186FD0EC00FB607FCF5CF83
:1020F000808185FFF2CFA889B9898C9185FFEDCFCA
:10210000CE01C2DFE8CFDF91CF910895EF92FF9229
:102110000F931F93CF93DF93EC0181E0888F9B8D0A
:102120008C8D981305C0E889F989808185FD23C0CD
:10213000F62E0B8D10E00F5F1F4F0F731127E02E4F
:102140008C8DE8120BC00FB607FCFACFE889F9892D
:10215000808185FFF5CFCE0197DFF2CF8B8DFE0119
:10216000E80FF11DE35AFF4FF0820B8FEA89FB89DC
:102170008081806207C0EE89FF896083E889F989E0
:1021800080818064808381E090E0DF91CF911F9116
:102190000F91FF90EF900895CF92DF92EF92FF9210
:1021A0001F93CF93DF93EC016A017B01122FE88923
:1021B000F98982E080834115514E61057105B1F0C6
:1021C00060E079E08DE390E0A70196010E94033181
:1021D000DA01C9010197A109B109B695A7959795AB
:1021E0008795AC01411580E15807A8F0E889F98985
:1021F000108260E874E88EE190E0A70196010E94E9
:102200000331BA01A901415051096109710976955B
:10221000679557954795EC85FD855083EE85FF853D
:102220004083188EEC89FD891083EA89FB898081BF
:1022300080618083EA89FB89808188608083EA8964
:10224000FB89808180688083EA89FB8980818F7D1A
:102250008083DF91CF911F91FF90EF90DF90CF901F
:1022600008951F920F920FB60F9211240BB60F9282
:102270002F938F939F93EF93FF93E0917F04F091BF
:1022800080048081E0918504F091860482FD12C073
:102290009081809188048F5F8F73209189048217C9
:1022A00051F0E0918804F0E0E159FB4F958F809365
:1022B000880401C08081FF91EF919F918F912F91B0
:1022C0000F900BBE0F900FBE0F901F9018951F928E
:1022D0000F920FB60F9211240BB60F922F933F93CC
:1022E0004F935F936F937F938F939F93AF93BF931E
:1022F000EF93FF938FE694E0C7DEFF91EF91BF91DC
:10230000AF919F918F917F916F915F914F913F918D
:102310002F910F900BBE0F900FBE0F901F9018952E
:10232000EFE6F4E01382128288EE93E0A0E0B0E0E2
:1023300084839583A683B7838CED93E09183808318
:1023400085EC90E09587848784EC90E0978786877A
:1023500080EC90E0918B808B81EC90E0938B828B72
:1023600082EC90E0958B848B86EC90E0978B868B4B
:10237000118E128E138E148E08951F920F920FB627
:102380000F9211240BB60F922F938F939F93EF937D
:10239000FF93E0911C05F0911D058081E0912205DD
:1023A000F091230582FD12C09081809125058F5FF9
:1023B0008F7320912605821751F0E0912505F0E0FA
:1023C000E45FFA4F958F8093250501C08081FF91CE
:1023D000EF919F918F912F910F900BBE0F900FBE99
:1023E0000F901F9018951F920F920FB60F92112405
:1023F0000BB60F922F933F934F935F936F937F93FF
:102400008F939F93AF93BF93EF93FF938CE095E0EF
:102410003BDEFF91EF91BF91AF919F918F917F91A3
:102420006F915F914F913F912F910F900BBE0F9045
:102430000FBE0F901F901895ECE0F5E0138212820A
:1024400088EE93E0A0E0B0E084839583A683B78311
:102450008CED93E0918380838DEC90E09587848769
:102460008CEC90E09787868788EC90E0918B808B4E
:1024700089EC90E0938B828B8AEC90E0958B848B37
:102480008EEC90E0978B868B118E128E138E148EAD
:1024900008951F920F920FB60F9211240BB60F9250
:1024A0002F938F939F93EF93FF93E091B905F09152
:1024B000BA058081E091BF05F091C00582FD12C090
:1024C00090818091C2058F5F8F732091C305821721
:1024D00051F0E091C205F0E0E755FA4F958F8093F7
:1024E000C20501C08081FF91EF919F918F912F9143
:1024F0000F900BBE0F900FBE0F901F9018951F925C
:102500000F920FB60F9211240BB60F922F933F9399
:102510004F935F936F937F938F939F93AF93BF93EB
:10252000EF93FF9389EA95E0AFDDFF91EF91BF91C3
:10253000AF919F918F917F916F915F914F913F915B
:102540002F910F900BBE0F900FBE0F901F901895FC
:10255000E9EAF5E01382128288EE93E0A0E0B0E0B1
:1025600084839583A683B7838CED93E091838083E6
:1025700085ED90E09587848784ED90E09787868746
:1025800080ED90E0918B808B81ED90E0938B828B3E
:1025900082ED90E0958B848B86ED90E0978B868B17
:1025A000118E128E138E148E08951F920F920FB6F5
:1025B0000F9211240BB60F922F938F939F93EF934B
:1025C000FF93E0915606F09157068081E0915C06FA
:1025D000F0915D0682FD12C0908180915F068F5F51
:1025E0008F7320916006821751F0E0915F06F0E052
:1025F000EA5BF94F958F80935F0601C08081FF9160
:10260000EF919F918F912F910F900BBE0F900FBE66
:102610000F901F9018951F920F920FB60F921124D2
:102620000BB60F922F933F934F935F936F937F93CC
:102630008F939F93AF93BF93EF93FF9386E496E0BE
:1026400023DDFF91EF91BF91AF919F918F917F918A
:102650006F915F914F913F912F910F900BBE0F9013
:102660000FBE0F901F901895E6E4F6E013821282D9
:1026700088EE93E0A0E0B0E084839583A683B783DF
:102680008CED93E09183808385E391E09587848747
:1026900084E391E09787868780E391E0918B808B3C
:1026A00081E391E0938B828B82E391E0958B848B25
:1026B00086E391E0978B868B118E128E138E148E8B
:1026C00008958F929F92AF92BF92CF92DF92EF9236
:1026D000FF920F931F93CF93DF937C018B016C01CB
:1026E00082E0C80ED11C4701E5E08E0E911CC0E0CF
:1026F000D0E0F60161916F014AE050E0C801C6D018
:102700005C016EE2C80167D08A0D9B1DC80FD91FFE
:10271000C814D90471F74AE050E0F7016581C80197
:10272000B5D08C0F9D1FDF91CF911F910F91FF901E
:10273000EF90DF90CF90BF90AF909F908F900895D3
:10274000E3EEF6E08CEE93E09183808312821382B5
:10275000148215820895CF92DF92EF92FF920F9329
:102760001F93CF93DF936C017A018B01C0E0D0E01F
:10277000CE15DF0589F0D8016D918D01D601ED915F
:10278000FC910190F081E02DC6011995892B11F47F
:102790007E0102C02196ECCFC701DF91CF911F913E
:1027A0000F91FF90EF90DF90CF9008956115710524
:1027B00079F0FB0101900020E9F73197AF01461B4A
:1027C000570BDC01ED91FC910280F381E02D19940F
:1027D00080E090E00895DC01ED91FC910190F081A2
:1027E000E02D19944F925F926F927F92EF92FF9239
:1027F0000F931F93CF93DF93CDB7DEB7A1970FB69B
:10280000F894DEBF0FBECDBF7C01FA01CB0119A247
:10281000223008F42AE08E010F5D1F4F422E512C0A
:10282000612C712CBF01A30192010E940331F901B7
:10283000CA01015011096A3014F4605D01C0695C7D
:10284000D8016C93232B242B252B61F7B801C701EA
:10285000ADDFA1960FB6F894DEBF0FBECDBFDF91FE
:10286000CF911F910F91FF90EF907F906F905F90AD
:102870004F9008952115310541F4DC01ED91FC9153
:102880000190F081E02D642F1994ACCF9A01462F6E
:1028900050E060E070E0EECF8230A9F028F48823A9
:1028A00049F0813051F00895843021F1E8F085300D
:1028B00039F1089510926E00089580916F008D7F18
:1028C00080936F000895809170008D7F80937000D9
:1028D00081E08093B0008091B100887F8460809314
:1028E000B1001092B3000895809171008D7F8093A4
:1028F00071000895809172008D7F80937200089519
:10290000809173008D7F809373000895CF93C82FBB
:10291000809137038C1307C0ECE6F2E0E4918FEF6F
:102920008093370301C0EFEF8E2FB6DF60E08C2F6E
:10293000CF9125CB1F920F920FB60F9211240BB699
:102940000F922F933F934F935F936F937F938F9348
:102950009F93AF93BF93EF93FF938091EC06909179
:10296000ED06A091EE06B091EF06892B8A2B8B2BFA
:1029700051F18091E906E091EA06F091EB06908131
:10298000892780838091EC069091ED06A091EE0658
:10299000B091EF06181619061A061B06BCF48091B2
:1029A000EC069091ED06A091EE06B091EF0601972E
:1029B000A109B1098093EC069093ED06A093EE0671
:1029C000B093EF0603C080913703A0DFFF91EF9132
:1029D000BF91AF919F918F917F916F915F914F9137
:1029E0003F912F910F900BBE0F900FBE0F901F9035
:1029F000189540E855E260E070E080E090E000C0AB
:102A00008130910571F01CF4892B39F008958230E2
:102A1000910559F0039769F0089526E08FE694E058
:102A20000BC026E08CE095E007C026E089EA95E03F
:102A300003C026E086E496E0AFCBDC01CB01863311
:102A40009105A105B10518F4C696A11DB11D60E060
:102A50005ACA1F920F920FB60F9211240BB60F9203
:102A60002F933F934F935F936F937F938F939F9396
:102A7000AF93BF93EF93FF938BEC93EF909325016C
:102A8000809324010E94C72DFF91EF91BF91AF91D8
:102A90009F918F917F916F915F914F913F912F9176
:102AA0000F900BBE0F900FBE0F901F9018958BECE0
:102AB00093EF9093250180932401A3E7B0E08C91DC
:102AC0008E7F8C93E0E2F1E080818C7F8083E1E275
:102AD000F1E08081877E8083808184608083808133
:102AE0008C7F80838C9181608C93089581E0089520
:102AF0006F927F928F929F92AF92BF92CF92DF920E
:102B0000EF92FF920F931F93CF93DF935C017B01B2
:102B10004A0101E010E00E151F0564F568018FEF12
:102B2000C81AD80AE801CC0FDD1FC80DD91D68806E
:102B3000798061147104E1F06EEE73E0C3010E94CC
:102B4000A732892B19F41982188212C061EF73E041
:102B5000C3010E94A732892B59F4CE14DF0441F03F
:102B60006801E2E0CE0ED11C198218821B821A8203
:102B70008601D1CF81E0F5018083B401C7010E94B5
:102B80002320F5019283818380E090E0DF91CF9153
:102B90001F910F91FF90EF90DF90CF90BF90AF907B
:102BA0009F908F907F906F90089580EF96E00895AA
:102BB00080E008950F931F93CF93DF938B01BA01A9
:102BC000E901198218829801012E000C440B550B63
:102BD000FC01818192810E94990B019621F0198359
:102BE000088380E001C081E0DF91CF911F910F91B8
:102BF00008950F931F93CF93DF931F921F92CDB72A
:102C0000DEB7FB018A01B9019E012F5F3F4FAF0183
:102C1000FC01818192810E943C20019639F08981DA
:102C20009A81F8019183808380E001C081E00F9058
:102C30000F90DF91CF911F910F910895FC0180813A
:102C400008950895089581E0FB01808380E0089550
:102C5000089510921A070895FC01818192810C94C5
:102C60001A20CF93DF93CDB7DEB72A970FB6F8942B
:102C7000DEBF0FBECDBFAC01CB0160E070E0498389
:102C80005A836B837C83092E000CAA0BBB0B8D83AC
:102C90009E83AF83B8879E01275F3F4FAE014F5F92
:102CA0005F4F68E070E08091090790910A0782DF2A
:102CB000811108C081E029853A852830310519F451
:102CC00080E001C081E02A960FB6F894DEBF0FBE07
:102CD000CDBFDF91CF9108950F931F93CF93DF93D3
:102CE0001F921F92CDB7DEB78B019E012F5F3F4F22
:102CF000AC018091090790910A075CDF811108C03F
:102D000081E029813A812017310719F480E001C060
:102D100081E00F900F90DF91CF911F910F91089557
:102D2000CF93DF93EC0110920D0710920C071092D5
:102D3000190710921807AC0160E070E0CB010E9407
:102D40008027AE0161E070E080E090E00E94802783
:102D50008091090790910A07DF91CF9179CF4F9227
:102D60005F926F927F928F929F92AF92BF92CF921B
:102D7000DF92EF92FF920F931F93CF93DF931F92F7
:102D80001F92CDB7DEB79C016C0197FF03C087E0AF
:102D9000C80ED11C43E0D594C7944A95E1F7C90108
:102DA00068E070E00E94F0307C0189010E5F1F4FE7
:102DB0008091070790910807801791070CF0DCC0FD
:102DC0008091050790910607009731F00E94FF312E
:102DD0001092080710920707C8010E946A31909369
:102DE000060780930507892B29F0109308070093A5
:102DF0000707C2C0A12CB12CAC14BD040CF05EC0FE
:102E0000412C512C320100E010E09801225F384F34
:102E1000AE014F5F5F4F61E070E0809109079091D4
:102E20000A07E7DE811198C189819A812FEF421A42
:102E3000520A620A720A20E942162FE5520621E080
:102E4000620671043CF060911807709119078DEECD
:102E500090E02DC0080F191F0A30110551F549E007
:102E600050E060E070E08EE097E00E94B92D609144
:102E70001807709119078823C1F08091160790E018
:102E80006817790709F0B8CF8EEE90E0EADE8091FE
:102E90001807909119070196992790931907809325
:102EA00018078FEFA81AB80AA7CF8FEE90E0D9DEE7
:102EB000A7CF0A3011050CF4A8CF9ECFEF2809F454
:102EC0004BC1C12CD12C760100E010E09801225FAB
:102ED000384FAE014F5F5F4F61E070E080910907AE
:102EE00090910A0786DE811137C189819A812FEF7F
:102EF000C21AD20AE20AF20A20E9C2162FE5D20665
:102F000021E0E206F1043CF0609118077091190786
:102F10008DEE90E02AC0080F191F0A30110539F50F
:102F200049E050E060E070E08EE097E00E94B92D4B
:102F300060911807709119078823A9F080911607EE
:102F400090E06817790709F007C18EEE90E089DEFE
:102F50008091180790911907019699279093190766
:102F600080931807F9C08FEE90E07BDEAACF0A307D
:102F700011050CF4ABCFF0C000E010E00C151D05FE
:102F80000CF077C0412C512C3201A12CB12C4801FE
:102F900093E0880C991C9A95E1F7209105073091F0
:102FA0000607C4018A0D9B1D280F391FAE014F5F14
:102FB0005F4F61E070E08091090790910A0719DE88
:102FC0008111CAC089819A812FEF421A520A620A7E
:102FD000720A20E942162FE5520621E062067104CA
:102FE0003CF060911807709119078DEE90E034C0A5
:102FF000A80EB91E8AE0A816B104A9F549E050E070
:10300000B40180910507909106070E94B92D609147
:103010001807709119078823E9F0809105079091AE
:103020000607FC01E80DF91D808590E06817790717
:1030300009F0A4CF8EEE90E014DE809118079091F5
:1030400019070196992790931907809318070F5F26
:103050001F4F94CF8FEE90E004DE412C512C3201B3
:10306000A12CB12C9ACF2AE0A216B1040CF495CF72
:1030700085CFE114F10409F46AC0680183E0CC0C47
:10308000DD1C8A95E1F7812C912C540100E010E0C1
:103090009801225F384FAE014F5F5F4F61E070E0F3
:1030A0008091090790910A07A4DD811155C089819B
:1030B0009A812FEF821A920AA20AB20A20E9821696
:1030C0002FE5920621E0A206B1043CF060911807BA
:1030D000709119078DEE90E034C0080F191F0A3067
:1030E000110589F549E050E060E070E08EE097E07E
:1030F0000E94B92D60911807709119078823F9F083
:103100008091160790E06817790709F58EEE90E038
:10311000A8DD8091050790910607A7016EE077E092
:103120008C0D9D1D0E949732809118079091190770
:1031300001969927909319078093180708C08FEE7E
:1031400090E08FDDA0CF0A3011050CF4A1CF809163
:1031500005079091060702C080E090E00F900F9065
:10316000DF91CF911F910F91FF90EF90DF90CF9063
:10317000BF90AF909F908F907F906F905F904F9097
:103180000895CF92DF92EF92FF920F931F93CF9308
:10319000DF931F92CDB7DEB76C017B018A01452B0F
:1031A00039F0AB0160E070E0C8010E94B52D898361
:1031B000B701C60156DD81110DC00115110551F091
:1031C000B701C80189DD811105C061E070E0CE0161
:1031D000019682DD0F90DF91CF911F910F91FF90AB
:1031E000EF90DF90CF900895CF92DF92EF92FF9211
:1031F000CF93DF93CDB7DEB728970FB6F894DEBF35
:103200000FBECDBF6B01E12CF12CC982DA82EB82BB
:10321000FC822D833E834F835887AE014F5F5F4F03
:1032200068E070E0AEDF28960FB6F894DEBF0FBE00
:10323000CDBFDF91CF91FF90EF90DF90CF900895B9
:103240000F931F93CF93DF93EC018B01AEDC909330
:103250000A0780930907009739F0A801BE0148DCEE
:10326000EC01892B19F40BC0CDEFD3E08091090755
:1032700090910A07E6DC10920A0710920907CE0126
:10328000DF91CF911F910F9108958091090790913F
:103290000A07D4CC2F923F924F925F926F927F9207
:1032A0008F929F92AF92BF92CF92DF92EF92FF9256
:1032B0000F931F93CF93DF93CDB7DEB769970FB608
:1032C000F894DEBF0FBECDBF20910D07222309F475
:1032D00029C25D8B4C8B688B798B8A8B9B8B9A0177
:1032E000AB01BC01CE0101960E94722C10E038E0C7
:1032F000232E312C89819A81181619060CF00DC2E3
:103300001F861E861D861C8689819A81AC85BD8597
:10331000A817B9070CF0F6C1EB81FC812E853F851B
:10332000E20FF31F208131813093040720930307BC
:103330008481958190930207809301074281538194
:10334000509300074093FF06468157815093FE0635
:103350004093FD06820F931F9C01990F440B550B60
:103360002E8B3F8B488F598FC12CD12C76012E8903
:103370003F89488D598DC216D306E406F50608F03C
:10338000A5C11F8260910307709104078B01072E6E
:10339000000C220B330BD701C6010496A11DB11DF1
:1033A00080179107A207B30728F4E091FF06F09178
:1033B00000070AC0E4E0F0E0E61BF70BEC0DFD1D92
:1033C0008091FD069091FE06E80FF91F4080512C78
:1033D000612C712CD701C6010596A11DB11D801766
:1033E0009107A207B30728F4E091FF06F0910007C8
:1033F0000AC0E5E0F0E0E61BF70BEC0DFD1D809147
:10340000FD069091FE06E80FF91F8081582AD7012A
:10341000C6010696A11DB11D80179107A207B3072B
:1034200028F4E091FF06F09100070AC0E6E0F0E022
:10343000E61BF70BEC0DFD1D8091FD069091FE063D
:10344000E80FF91F8081682AD701C6010796A11DE0
:10345000B11D80179107A207B30728F4E091FF067A
:10346000F09100070AC0E7E0F0E0E61BF70BEC0D77
:10347000FD1D8091FD069091FE06E80FF91F8081E9
:10348000782A4601570148E0840E911CA11CB11C0A
:10349000081519052A053B0508F4B6C0C016D10663
:1034A000E206F30638F48091FF06909100078C0D38
:1034B0009D1D09C0C601861B970B2091FD0630910A
:1034C000FE06820F931F68E070E006DCE0910307C0
:1034D000F09104079F010F2E000C440B550BD301F4
:1034E000C201880D991DAA1DBB1D281739074A075F
:1034F0005B07C8F082169306A406B50638F420913F
:10350000FF0630910007C601089609C0C1018E1B55
:103510009F0B8C0D9D1D2091FD063091FE06820FA4
:10352000931FB2019BC08601BF01685071096C19DD
:103530007D0982169306A406B50638F42091FF068D
:1035400030910007C601089609C0C1018E1B9F0B70
:103550008C0D9D1D2091FD063091FE06820F931F5C
:10356000BBDB8091030790910407B101681B790BC5
:10357000600F711F640D751D8091FD069091FE0610
:10358000ABDB8091030790910407AC0148505109CF
:10359000FA01E01BF10BAC01092E000C660B770B56
:1035A00084169506A606B70638F42091FF063091DA
:1035B0000007C60108960AC09101281B390BC901F2
:1035C0008C0D9D1D2091FD063091FE06820F931FEC
:1035D000AF0160E070E00E94B52D8F83209103075A
:1035E00030910407A101421B530B9A01200F311F98
:1035F000240D351D40E050E0682F8091FD0690912C
:10360000FE060E94A12D51C0C016D106E206F306A7
:10361000C8F46C197D098091FF06909100078C0D0C
:103620009D1D5ADB8091030790910407B101681B2F
:10363000790B6C0D7D1D640D751D8091FD069091BB
:10364000FE060CC0C601861B970B2091FD0630912B
:10365000FE06B201685F7F4F820F931F3DDB8091B2
:10366000030790910407AC01092E000C660B770B41
:1036700084169506A606B70638F42091FF06309109
:103680000007C60108960AC0D101A81BB90BCD01DD
:103690008C0D9D1D2091FD063091FE06820F931F1B
:1036A000A20160E070E00E94B52D8F8361E070E0C0
:1036B000CE01079611DB182FB8E04B0E511C611C90
:1036C000711CC40CD51CE61CF71C51CE8C859D8545
:1036D000880F991FED81FE81E80FF91F48895989EC
:1036E0006A897B89808191810E94B2274C855D85A2
:1036F0004F5F5F4F5D874C878E859F8508969F87BC
:103700008E8702CE2C893D89488959896A897B89AF
:10371000CE0101960E94722CEDCD112319F08C89F7
:103720009D89FEDA69960FB6F894DEBF0FBECDBF55
:10373000DF91CF911F910F91FF90EF90DF90CF908D
:10374000BF90AF909F908F907F906F905F904F90C1
:103750003F902F900895CF93DF93EC01AC0160E090
:1037600070E0CB0197DDAE0161E070E080E090E0B9
:10377000DF91CF918FCDCF938091090790910A0768
:1037800017DAC82F811109C060E070E0CB01C0D604
:1037900061E070E080E090E0BBD68C2FCF9108957F
:1037A0000F931F9389019A01AB01BC018091090716
:1037B00090910A0747DA1F910F9108953F924F9217
:1037C0005F926F927F928F929F92AF92BF92CF92B1
:1037D000DF92EF92FF920F931F93CF93DF93CDB7BA
:1037E000DEB767970FB6F894DEBF0FBECDBF6C0192
:1037F0007B015A0180910D07882331F080910D07DC
:10380000882309F467C30AC06DE077E08091090757
:1038100090910A0718DA81115DC3F0CF80910C07EF
:103820001A821982882309F46BC0E0E94E2EEFE575
:103830005E2E66246394712C00E010E098012D50F8
:10384000394FAE014F5F5F4F61E070E08091090733
:1038500090910A07CED9982E81114EC089819A8104
:10386000080F191F0115110509F446C081E0481A17
:1038700051086108710839F46091180770911907AF
:103880008DEE90E031C00A30110591F549E050E02D
:1038900060E070E083EF96E00E94B92D6091180718
:1038A000709119078823F1F08091FB0690E068176A
:1038B0007907D9F48EEE90E0D4D988E0E3EFF6E012
:1038C000DE01199601900D928A95E1F72091180773
:1038D000309119072F5F3F4F3327309319072093FB
:1038E00018070AC08FEE90E0BCD91A82198204C072
:1038F0000A3011050CF4A2CF81E029813A8124C05D
:1039000000E010E078E0672E712C29E030E02C0F09
:103910003D1F200F311FAE014F5F5F4FB301601B92
:10392000710B8091090790910A0763D9982E29811C
:103930003A81811108C0020F131F0115110519F0FA
:103940000830110514F381E0121613060CF080E024
:103950009110BDC2882309F4BDC280910C0781116A
:1039600004C019861A861B861C8689859A85AB85B4
:10397000BC858031910508F0ADC2FC018827EA566C
:10398000FF4F8F4F0C942531D6011696ED91FC9187
:10399000179780819181A281B38189839A83AB83B8
:1039A000BC83AE014F5F5F4F64E070E085E190E063
:1039B0007FC18D859E85D3D9009731F42FEF3FEFDE
:1039C000A90161E070E00EC0FC0180809180A280BE
:1039D000B380A701C501B4010E942B27A501940162
:1039E00060E070E08DE190E070C28D859E85B7D972
:1039F000009721F42FEF3FEFA9010FC0DC018D905C
:103A00009D90AD90BD90AD0195018401B701C601B7
:103A1000C4D6A5019401882319F061E070E002C0CA
:103A200060E070E08BE190E050C28D859E8597D973
:103A3000009721F42FEF3FEFA9010FC0FC01819007
:103A40009190A190B190BF01A5019401C6010E947F
:103A5000D025A5019401882319F061E070E002C02F
:103A600060E070E08CE190E030C2D6011496ED91F8
:103A7000FC91159700811181F80182809380A080CC
:103A8000B18060E1462E512C612C712C49825A8202
:103A90006B827C8288E090E0A0E0B0E08D839E8322
:103AA000AF83B8879E012F5E3F4FAE014F5F5F4FE0
:103AB00068E070E08091090790910A077BD888231D
:103AC00019F000E010E0BCC089899A890897C9F70D
:103AD000D801ED90FC90B8E0EB0EF11CEE0CFF1C51
:103AE000EE0CFF1CC7010E946A318C01892B49F33F
:103AF00049825A826B827C82C7010F2C000CAA0B70
:103B0000BB0B8D839E83AF83B8879E012F5E3F4F93
:103B1000AE014F5F5F4F68E070E0809109079091C0
:103B20000A0748D881118CC089899A89089709F0B9
:103B300087C0D6011296ED91FC9113974081518177
:103B400062817381D8014D935D936D937C9313973C
:103B5000448155816681778114964D935D936D9371
:103B60007C931797408551856285738518964D9390
:103B70005D936D937C931B9784859585A685B7850A
:103B8000F80184879587A687B787108A118A128AD9
:103B9000138A84E090E0A0E0B0E0848B958BA68B44
:103BA000B78B8091240390912503A0E0B0E0808F33
:103BB000918FA28FB38FC5010B2C000CAA0BBB0BEE
:103BC000848F958FA68FB78FF401D801909680E0EF
:103BD00090E08A159B0554F44191519160E070E0AA
:103BE0004D935D936D937D930196F3CF9E012F5E70
:103BF0003F4FA801B7018091090790910A070E94E1
:103C0000DA1581111DC089899A898E159F05C1F425
:103C1000A70160E070E0C8010E94B52D8B8B9E016A
:103C20002F5E3F4FAE014D5E5F4F61E070E08091CF
:103C3000090790910A070E94DA1581E080930C072A
:103C4000C80167960FB6F894DEBF0FBECDBFDF91F7
:103C5000CF911F910F91FF90EF90DF90CF90BF9089
:103C6000AF909F908F907F906F905F904F903F901C
:103C70000C94FF318D859E85AF85B8890097A1058D
:103C8000B10521F481E080930B0724C168D8009727
:103C900089F481E090E0A0E0B0E089839A83AB836F
:103CA000BC83AE014F5F5F4F64E070E082E190E063
:103CB00068DA10C1BC01C6017ED319821A821B8248
:103CC0001C82AE014F5F5F4F64E070E082E190E0E4
:103CD00058DA8111FFC0D6CFD6011496ED91FC9130
:103CE00015970190F081E02D008511858FEF898374
:103CF0000115110509F473C0D8016D907C90A28064
:103D0000B38020E030E060E070E080E090E0861575
:103D100097050CF5F801A281B381A20FB31F12968B
:103D2000ED91FC911397EE0FFF1FEA0DFB1D019023
:103D3000F081E02D16960D90BC91A02DEA9FA00178
:103D4000EB9F500DFA9F500D1124640F751F0196C3
:103D5000285F3F4FDCCF83E190E00E943116811154
:103D6000B9C0C12CD12CE12CF12CE614F70484F558
:103D7000D8011296ED91FC911397EC0DFD1D8080FA
:103D80009180A281B381AA0FBB1FAA0DBB1D2D91EB
:103D90003C9186819781289F2001299F500C389F54
:103DA000500C1124B201C4010E946C16382E9201ED
:103DB00040E050E06981C4010E94A12D8983B8E0F0
:103DC000CB0ED11C311086C0EFEFEE1AFE0ACDCF1C
:103DD00061E070E0CE0101960E946C167BC060E04D
:103DE00070E083E190E00E94311674C040E050E042
:103DF00060E070E081E190E0C4D981116BC0109166
:103E0000A30760E070E0CB01AFD4112329F0A70134
:103E100060E070E0CB013EDAA70160E070E0CB012A
:103E2000A3D361E070E080E090E09ED4112331F0F4
:103E3000A70161E070E080E090E02CDAA70161E08A
:103E400070E080E090E090D310920D0710920C0784
:103E500010921907109218078091090790910A078C
:103E60000E94291637C081E090E09093650480930A
:103E7000640440E050E060E070E086E190E018CF3C
:103E800081E0D5018C9326C08D859E850E94AF165A
:103E9000009731F42FEF3FEFA90161E070E013C00C
:103EA000FC012081318142815381CA01B9012C8BEF
:103EB0003D8B4E8B5F8B0E948B272C893D894E89D1
:103EC0005F8960E070E08EE190E08ED903C0C701A9
:103ED0000E94901667960FB6F894DEBF0FBECDBF56
:103EE000DF91CF911F910F91FF90EF90DF90CF90D6
:103EF000BF90AF909F908F907F906F905F904F900A
:103F00003F900895CF92DF92EF92FF92CF93DF938D
:103F1000EC01C12CD12C7601C701B60125D4AE012C
:103F2000C701B601B7D9AE01C701B6011DD3809153
:103F3000050790910607009731F00E94FF3110921B
:103F4000060710920507CA94CD28CE28CF2829F05D
:103F5000C12CD12C7601C394DFCF80910C0788232C
:103F600059F040E050E060E070E084E190E009D971
:103F7000F82E10920C0701C0F12C80910D078823B8
:103F800041F010920D0781E090E09093250380931B
:103F900024038091090790910A070E942C168091B2
:103FA000090790910A070E9421168F2DDF91CF916A
:103FB000FF90EF90DF90CF900895CF93DF93EC01C7
:103FC000AC0160E070E0CB010E94E32BAE0161E048
:103FD00070E080E090E0DF91CF910C94E32B60E003
:103FE00070E0CB010E944F2C61E070E080E090E037
:103FF0000C944F2CCF92DF92EF92FF920F931F936E
:10400000CF93DF93EC016A017B0100E010E098019F
:10401000D2D701E010E020E030E0B701A601CE01E8
:10402000CAD7DF91CF911F910F91FF90EF90DF9052
:10403000CF90089568EE73E080E090E00E94A60DB6
:1040400080E090E008950E94DF0D26E040E050E11E
:104050006EE070E08FE694E00E94CC108FE694E072
:104060000E941610892B29F08FE694E00E943010F0
:10407000F5CF80E090E00895AF92BF92CF92DF92AB
:10408000EF92FF920F931F93CF93DF931F921F9294
:10409000CDB7DEB77A018901F901118210828FE66E
:1040A00094E069837A830E94161069817A81892B52
:1040B00099F15B01DD24D39485E6C82E80911A071F
:1040C000811124C08FE694E00E943010853691055E
:1040D000A9F7D0921A07F501C1925F01F80180811A
:1040E0009181019691838083E9CF8FE694E00E94CD
:1040F00030108F3FFFEF9F0749F0F50181935F017B
:10410000F80180819181019691838083F8018081FB
:1041100091818E159F0548F380E090E00F900F90FD
:10412000DF91CF911F910F91FF90EF90DF90CF9093
:10413000BF90AF9008950F931F93CF93DF93EA0141
:1041400089018FE694E00E94AB13F801D183C0830C
:1041500080E090E0DF91CF911F910F910895EF9251
:10416000FF920F931F93CF93DF93DC01EA01F901D4
:1041700014968D919C91159712960D911C91139701
:10418000080F191F2881398118964D915C91199754
:104190004217530728F04D915C911197452B39F147
:1041A0007801E21AF30A18964D915C911997481B11
:1041B000590B4E0D5F1D4617570794F1A901460F85
:1041C000571F40175107E0F0F182E08233832283CA
:1041D0006E197F0975836483161617061CF4382F31
:1041E000292F02C030E020E03683278313C01896C1
:1041F0008D919C911997821B930B8617970784F0DA
:10420000718360833383228315821482178216821E
:1042100088819981680F791F7983688380E001C064
:1042200081E0DF91CF911F910F91FF90EF90089562
:10423000CF92DF92EF92FF92CF93DF936B017C01DD
:1042400084E48C9DE0018D9DD00D1124C55ED84F76
:104250008AA99BA9009721F00E94FF311BAA1AAAE4
:1042600084E48C9DF0018D9DF00D1124E55EF84FE6
:1042700086A997A9009711F00E94FF3184E48C9DD4
:10428000F0018D9DF00D1124E55EF84F138A128A1E
:10429000168A178A108E118E128E138E148E158E1A
:1042A000168E178E10A211A281E090E093A382A334
:1042B00015A214A216A217A210A611A613A612A642
:1042C00015A614A616A617A610AA11AA13AA12AA12
:1042D00015AA14AA17AA16AA11AE10AE12AE13AEE2
:1042E00014AE15AEDF01DE961D921D921D921C923A
:1042F0001397EE5BFF4F11821082DF91CF91FF90F9
:10430000EF90DF90CF9008950F931F93CF93DF939B
:10431000EB01DC018D919C91FC01A681B781E881C4
:10432000F98123E0EE0FFF1F2A95E1F712962D91F8
:104330003C911397E20FF31F00811181AC85BD857D
:104340009D01220F331FDC0112968D919C911397D2
:10435000D901A80FB91F8D919C9124813581232B00
:1043600019F461E070E002C062E070E0689F9001C3
:10437000699F300D789F300D112488859985289F7D
:10438000B001299F700D389F700D1124EC81FD81C3
:104390002E9FC0012F9F900D3E9F900D1124800FE6
:1043A000911FFA019183808373836283DF91CF91A0
:1043B0001F910F9108952F923F924F925F926F92AB
:1043C0007F928F929F92AF92BF92CF92DF92EF92A5
:1043D000FF920F931F93CF93DF9300D000D0CDB700
:1043E000DEB7DC011496ED91FC9115970190F081F8
:1043F000E02D808591859A838983A281B381BC83D6
:10440000AB83FB0181909190A190B1908F01C12C61
:10441000D12C7601C814D904EA04FB040CF05FC067
:10442000D80114964D905D906D907C9017971896DA
:104430004D915D916D917C911B97F8017096FE8373
:10444000ED83F801A081B18183E0AA0FBB1F8A959B
:10445000E1F7E981FA8182819381A80FB91F2D903C
:104460003C901197F80124853585220F331F8B81ED
:104470009C81280F391FF9010081118114968D91BB
:104480009C911597892B19F481E090E002C082E09D
:1044900090E0809F9001819F300D909F300D1124FE
:1044A000249F8001259F100D349F100D1124249D01
:1044B000C001259D900D349D900D1124A8016D81A2
:1044C0007E81820D931D0E9497328D819E81080FFF
:1044D000191F9FEFC91AD90AE90AF90A9BCF269634
:1044E0000FB6F894DEBF0FBECDBFDF91CF911F9105
:1044F0000F91FF90EF90DF90CF90BF90AF909F9083
:104500008F907F906F905F904F903F902F90089585
:10451000CF93DF93DB01A85CBC4F2C91222369F081
:1045200024E4269FF001279FF00D1124E55EF84F4B
:10453000EF0119922A95E9F71C9224E4269FF001D5
:10454000279FF00D1124E55EF84F14821582168224
:1045500017821186108613861286118A108A178692
:104560001686DF91CF9164CE2F923F924F925F9249
:104570006F927F928F929F92AF92BF92CF92DF9273
:10458000EF92FF920F931F93CF93DF93CDB7DEB7D8
:1045900028970FB6F894DEBF0FBECDBF6B017C012C
:1045A0001A0184E48C9D90018D9D300D1124255EAF
:1045B000384FF90184819581A681B781892B8A2B97
:1045C0008B2B09F4B8C0A12CB12C412C512C3201F9
:1045D00038872F83C90104969A838983D901189655
:1045E000BC83AB83E981FA8180819181A281B3810F
:1045F000481659066A067B0694F5AB81BC81ED919D
:10460000FC91EA0DFB1D228133818901812C912CC3
:1046100082149304C4F4D801ED91FC91309769F0B1
:10462000848195812D833E830E94FF31F801808132
:1046300091810E94FF313E812D81FFEF8F1A9F0AE9
:104640000E5F1F4FE5CFC9010E94FF318FEF481A5F
:10465000580A680A780A94E0A90EB11CC3CFAF814A
:10466000B88518968D919C9119970E94FF31EF8122
:10467000F88582859385892B59F1A12CB12C812C49
:10468000912C84E48C9D80018D9D100D11240B5D77
:10469000184F8214930484F4D801ED91FC91EA0D33
:1046A000FB1D848195810E94FF31BFEF8B1A9B0A0D
:1046B000EEE0AE0EB11CEDCF84E48C9DF0018D9D3B
:1046C000F00D1124E55EF84F828593850E94FF313D
:1046D00084E48C9D90018D9D300D11248901055E2F
:1046E000184FD80150968D919C9151970E94FF319F
:1046F000F801868597850E94FF31C701B60198DDD4
:10470000C701B60128960FB6F894DEBF0FBECDBF25
:10471000DF91CF911F910F91FF90EF90DF90CF909D
:10472000BF90AF909F908F907F906F905F904F90D1
:104730003F902F90EDCE28960FB6F894DEBF0FBEB7
:10474000CDBFDF91CF911F910F91FF90EF90DF9040
:10475000CF90BF90AF909F908F907F906F905F9021
:104760004F903F902F90089524E4269FF001279FBB
:10477000F00D1124E55EF84F828993890497029722
:1047800058F485E090E0938B828B8FEF9FEFDC01F4
:10479000828F938FA48FB58F08952F923F924F925F
:1047A0005F926F927F928F929F92AF92BF92CF92C1
:1047B000DF92EF92FF920F931F93CF93DF93CDB7CA
:1047C000DEB7E0970FB6F894DEBF0FBECDBF9AA359
:1047D00089A31B016A012801390184E4849D8001B9
:1047E000859D100D11249801255E384F7901D9015E
:1047F0004D925D926D927C921397AB01C301B20111
:10480000B3DEF801E15EF84FD6014D915D916D91F7
:104810007D918D01CA01408351836283738364E07B
:1048200070E00E945031F70191878087892B09F44D
:1048300099C11E8E1D8E198E1A8E1B8E1C8EF8A28B
:10484000EF8E97012C5F3F4F38A72FA32C5F3F4F70
:104850003AA729A7EFA1F8A580819181A281B38110
:10486000298D3A8D4B8D5C8D281739074A075B07D8
:104870000CF0E4C0A9A5BAA58D919C912D8D3E8D1B
:10488000280F391F3A8B298BD801ED91FC91EE0F3F
:10489000FF1FA9A1BAA18D919C91E80FF91F8081FA
:1048A0009181F90191838083D80114962D913D91D6
:1048B0004D915C9117972BA33CA34DA35EA3085F7A
:1048C0001F4F62E070E0C1010E945031E989FA890E
:1048D00093838283892B09F445C11D8A1E8A1F8A0E
:1048E000188E2D893E894F89588D8BA19CA1ADA131
:1048F000BEA1281739074A075B070CF08CC0D80106
:10490000ED90FC90EE0CFF1CE989FA89C280D380FF
:10491000CE0CDF1C68E070E081E090E00E94503136
:10492000D6018D939C93E989FA8982819381FC0158
:10493000EE0DFF1DC080D180C114D10409F412C155
:10494000D80114964D915D916D917C911797CA0194
:10495000F6014083518362837383085F1F4F64E0D5
:1049600070E00E945031D60115969C938E93149757
:10497000892B09F4F7C01C8A1B8A812C912C5401C5
:10498000F60180819181A281B38188169906AA06D9
:10499000BB06A4F5F601E480F5802B893C89E20E84
:1049A000F31EF801DE01119680E101900D928A95C7
:1049B000E1F7005F1F4FA701BE016F5F7F4FA9A105
:1049C000BAA114968D919C9115979EDCF6012681D3
:1049D0003781D70112968D919C911397820F931F67
:1049E00097838683BFEF8B1A9B0AAB0ABB0A2B897E
:1049F0003C892C5F3F4F3C8B2B8BC2CF2D893E894E
:104A00004F89588D2F5F3F4F4F4F5F4F2D8B3E8B00
:104A10004F8B588F66CF298D3A8D4B8D5C8D2F5FD4
:104A20003F4F4F4F5F4F298F3A8F4B8F5C8F2D8DAC
:104A30003E8D2C5F3F4F3E8F2D8F0CCF6EE070E090
:104A4000C1010E945031AF8DB8A11B969C938E93EB
:104A50001A97812C912CA12CB12CC12CD12C24E49F
:104A6000249DC001259D900D11249C012B5D384F84
:104A70003A8B298B21E030E0A214B3040CF04AC039
:104A8000D8014D915D916D917D918D01CA01E989AA
:104A9000FA89E080F180E80CF91C57FD63C0D7016A
:104AA00011963C932E930097A1F02FA738AB4BA7FC
:104AB0005CA76DA77EA70E946A31F7019583848366
:104AC0002FA538A94BA55CA56DA57EA5892B31F432
:104AD00049C0D70115961C921E921497F701538373
:104AE000428384819581978386839187808713860B
:104AF000128681E090E0452B462B472B11F480E095
:104B000090E0C80ED91EFFEFAF1ABF0A4EE0840E28
:104B1000911CB2CF84E4849D8001859D100D1124E9
:104B2000055E184FD8011D961C921E921C97C60157
:104B300033E0880F991F3A95E1F70E946A31F80136
:104B4000918B808B892B71F0C601880F991F0E9471
:104B50006A31D8011F969C938E931E97892B11F072
:104B600080E005C0A101C301B201FEDC81E0E09656
:104B70000FB6F894DEBF0FBECDBFDF91CF911F916E
:104B80000F91FF90EF90DF90CF90BF90AF909F90EC
:104B90008F907F906F905F904F903F902F900895EF
:104BA0002F923F924F925F926F927F928F929F923D
:104BB000AF92BF92CF92DF92EF92FF920F931F932B
:104BC000CF93DF93CDB7DEB768970FB6F894DEBF0B
:104BD0000FBECDBF9C8B8B8BDB0149015A0124E4B6
:104BE000289DC001299D900D11249C01255E384F00
:104BF00079012D913C911197F701358B248BFC01A4
:104C0000EF5CF84F14964D915D916D917C911797E3
:104C10004083518362837383FC01EB5CF84F1896E9
:104C20004D915D916D917C911B974083518362837F
:104C30007383FC01E75CF84F1C964D915D916D917B
:104C40007C911F974083518362837383FC01E75BF0
:104C5000F84F50965C91509751964C9151975296BF
:104C60003C91529753962C915397508341833283B2
:104C700023838D010C5E1F4F852F942F1816190664
:104C80000CF068C0880F991F880F991F0E946A3125
:104C9000D701D3969C938E93D297892B09F4BCC0ED
:104CA000212C312C412C512C32019701225D3F4F98
:104CB0003E8B2D8B2C5F3F4F388F2F8B2E5F3F4FBE
:104CC0003A8B298BB301A2012FEF421A520A620AD2
:104CD000720AED89FE8980819181A281B381481792
:104CE00059076A077B074CF5AF89B88DCD90DC90EA
:104CF000C20CD31CF801DE01119680E101900D92E7
:104D00008A95E1F7005F1F4FA601BE016F5F7F4FDD
:104D1000EB89FC8984819581F7DAA989BA898D911B
:104D20009C911197F60122813381820F931F8D93FD
:104D30009C93F4E02F0E311CC5CFD701D4968D91F2
:104D40009C91D5970E946A31F70197AB86AB892B6E
:104D500009F462C0F80180819181A281B38124E4C9
:104D6000289DF001299DF00D1124E55EF84FAC015E
:104D7000BD014D7F21E030E0452B462B472B11F044
:104D800020E030E033A322A324E4289DF001299DF4
:104D9000F00D1124E55EF84F0197A109B10921E05A
:104DA00030E00297A105B10510F020E030E035A316
:104DB00024A384E4889DF001899DF00D1124CF0186
:104DC0008F5B984FD80114964D915D916D917C91B8
:104DD0001797DC014D935D936D937C931397E55E7C
:104DE000F84F868D978DA0A1B1A1B7FF10C0B095E7
:104DF000A095909581959F4FAF4FBF4F82AF93AFD6
:104E0000A4AFB5AF168E178E10A211A20AC012AEB3
:104E100013AE14AE15AE05C0C501B40109DA81E0C8
:104E200001C080E068960FB6F894DEBF0FBECDBF1C
:104E3000DF91CF911F910F91FF90EF90DF90CF9076
:104E4000BF90AF909F908F907F906F905F904F90AA
:104E50003F902F900895CF92DF92EF92FF92CF93E1
:104E6000DF931092A30724E4269FF001279FF00D03
:104E70001124E55EF84F15A614A620E030E0C12C01
:104E8000D12CDF011A96C1E0D0E0C416D506D4F4C7
:104E9000ED91FC911197E20FF31FE280F3801E1455
:104EA0001F0454F4E480F580F782E682F186E08600
:104EB00013861286D183C083EFEFCE1ADE0A225FFB
:104EC0003F4FE3CF24E4269FF001279FF00D1124EC
:104ED000E55EF84F13A612A611AE10AEDF01DE9606
:104EE0001D921D921D921C92139782E090E0938B6D
:104EF000828BDF91CF91FF90EF90DF90CF9008955C
:104F000024E4269FF001279FF00D1124E55EF84F61
:104F1000138A128A29CB24E4269FF001279FF00DE3
:104F20001124E55EF84F8289938981309105C8F09C
:104F30008530910518F0059769F008958FEF9FEF80
:104F4000DC01828F938FA48FB58F85E090E0938BE7
:104F5000828B08958FEF9FEFDC01828F938FA48F58
:104F6000B58F089524E4249FF001259FF00D1124AE
:104F7000E55EF84F2EE0AC01249FC001259F900D07
:104F800011240284F385E02DE80FF91F81E080935E
:104F9000A3078285938591878087408551852681E7
:104FA000378181E090E04217530711F080E090E0F4
:104FB0009183808308952F923F924F925F926F92D8
:104FC0007F928F929F92AF92BF92CF92DF92EF9299
:104FD000FF920F931F93CF93DF93CDB7DEB7C255E8
:104FE000D1090FB6F894DEBF0FBECDBF21969FAF9B
:104FF0008EAF21974BA75CA76DA77EA748015901EB
:1050000084E4889D8001899D100D1124F801E55EDE
:10501000F84F2285338527963FAF2EAF2797828999
:105020009389029709F058C186A597A5A0A9B1A9AF
:10503000892B8A2B8B2B29F484E090E0938B828B35
:105040004BC18489958921964EAD5FAD2197481754
:10505000590709F041C186A997A99AAB89AB1EAE41
:105060001DAE19AE1AAE1BAE1CAE8F01DF019E96AF
:105070002996BFAFAEAF2997F2962B96FFAFEEAF52
:105080002B979801285C3F4F2D963FAF2EAF2D9761
:10509000A8014A5D5F4F2F965FAF4EAF2F97C801B3
:1050A000829661969FAF8EAF61971A976396BFAF56
:1050B000AEAF63972996EEADFFAD299780819181C0
:1050C000A281B38129AD3AAD4BAD5CAD281739074C
:1050D0004A075B070CF0DFC02B96EEADFFAD2B97B8
:1050E000808191812DAD3EAD280F391F3EAB2DAB98
:1050F000D90112960D90BC91A02D2396BFAFAEAFF3
:105100002397B695A795B695A7952596BFAFAEAF51
:1051100025972D96EEADFFAD2D9780819181892B3E
:1051200009F48EC02F96AEADBFAD2F97CD90DD9018
:10513000ED90FC9029A83AA8F9010190F081E02DAA
:10514000F8ABEFA718AE1FAA8FA998AD2596AEAD04
:10515000BFAD25978A179B070CF072C06196AEAD64
:10516000BFAD61978D919C91892B49F1EFA5F8A96D
:105170004080518062807380A7019601C301B20113
:10518000C8D787FD0AC0A7019601D1016D917D9115
:105190008D919C9121D687FD86C0A7019601C30100
:1051A000B201B7D718165CF4A7019601F10160812E
:1051B00071818281938110D6882309F474C063962B
:1051C000AEADBFAD63978D919C91892B49F1EFA551
:1051D000F8A94080518062807380A7019601C301C5
:1051E000B201FAD587FF0AC0A7019601D1016D91DE
:1051F0007D918D919C918DD787FF55C0A701960118
:10520000C301B201E9D581110BC0A7019601F101DB
:1052100060817181828193817CD718160CF443C020
:105220002FA938AD2F5F3F4F38AF2FAB34E0230E9F
:10523000311C4FA558A94C5F5F4F58AB4FA784CF87
:10524000EDA9FEA96081718123964EAD5FAD2397D4
:1052500089A99AA90E94973225968EAD9FAD259770
:10526000880F991F880F991F29A93AA9280F391F5C
:105270003AAB29AB89AD9AADABADBCAD0196A11DE2
:10528000B11D89AF9AAFABAFBCAFADADBEAD14969B
:10529000BEAFADAF0FCF81E090E0D801D9969C931F
:1052A0008E93D89719C084E4889DF001899DF00DF4
:1052B0001124E55EF84F868D978DA0A1B1A1892BB1
:1052C0008A2B8B2B09F05EC284E090E0938B828B5B
:1052D00086AD97AD93A782A784E4889DF001899D50
:1052E000F00D1124E55EF84F828993898230910593
:1052F00071F482AD93ADA4ADB5AD181619061A06BA
:105300001B060CF046C2CC24C394D12C05C00497D4
:1053100009F03FC2C12CD12C8EE02196EEADFFAD3D
:1053200021978E9F70018F9FF00C112427962EAD30
:105330003FAD2797E20EF31ED70112964D915C9177
:1053400013974115510509F424C216968D919C912D
:1053500017979AA789A7FE01319684E1DF011D9274
:105360008A95E9F7898A9A8AAB8ABC8AC114D104E2
:1053700009F457C084E4889DF001899DF00D112443
:10538000E55EF84FDF01DE964D905D906D907C906C
:1053900082AD93ADA4ADB5AD481659066A067B063D
:1053A00009F03FC0F701648175810084F185E02D2B
:1053B00084819581A681B7819C018D8B9E8BAF8B5B
:1053C000B88F285F3F4F3E8B2D8BD70118968D915C
:1053D0009C911997280F391F19963C932E93189773
:1053E00018968D919C911997460F571F841B950B0A
:1053F00097FD06C0860F971F19969C938E9318975A
:1054000084E4889DF001899DF00D1124E75AF84F3E
:10541000B1E04B1A510861087108408251826282E2
:1054200073829E012B5E3F4FAE01475D5F4F64E18B
:1054300070E0C7010E94AF20082F10E00115110590
:1054400009F08BC18CE090E0A0E0B0E08D839E83FA
:10545000AF83B8879E01235E3F4FAE01475D5F4F2C
:1054600064E070E0C7010E94AF20082F10E0011532
:10547000110509F072C180E190E0A0E0B0E08D83F9
:105480009E83AF83B8874D8D5E8DBE01655D7F4F76
:105490008F8D98A10E9497328BA19CA1009761F0FB
:1054A0006D8D7E8DEBE2F0E0EC0FFD1F6E0F7F1F28
:1054B00049A15AA10E9497321DA21EA21FA218A69E
:1054C00021962EAD3FAD2197220F331F38AF2FAB62
:1054D00024E4289DC001299D900D1124855E984FDC
:1054E000AC014C5F5F4F5AAF49AFDC011896BEAFBD
:1054F000ADAF2DA13EA14FA158A529AB3AAB4BAB07
:105500005CABE9ADFAAD80819181A281B3812817AE
:1055100039074A075B070CF0CBC0ADADBEADED91CE
:10552000FC9189A99AA9880F991F880F991FE80FE4
:10553000F91FA081B1818C91882309F4ABC083301D
:1055400009F4A8C00280F381E02D2FA938ADE20F45
:10555000F31F4081518158AB4FA7452B09F49AC0E6
:1055600089859A85AB85BC850196A11DB11D89876A
:105570009A87AB87BC879E01235E3F4FAE01475D94
:105580005F4F64E070E0C7010E94AF2090E0009799
:1055900009F0E2C08D819E81AF81B8850496A11D7E
:1055A000B11D8D839E83AF83B8874D8D5E8DBE0107
:1055B0006B5D7F4F8F8D98A1BAD78BA19CA100976F
:1055C00059F06D8D7E8DA5E2B0E0AC0FBD1F6A0F66
:1055D0007B1F49A15AA1ABD71EAA1DAA412C512C51
:1055E0003201EFA5F8A980819181A281B38148168B
:1055F00059066A067B060CF04DC0EFA5F8A9248079
:1056000035802DA93EA9220E331ED10112966D912F
:105610007C9113979E01235E3F4FAE01475D5F4F24
:10562000C7010E94AF2090E0009709F095C0F101FA
:1056300082819381092E000CAA0BBB0B4D815E81E8
:105640006F817885840F951FA61FB71F8D839E835A
:10565000AF83B887608171814D8D5E8D8F8D98A1EC
:1056600066D78BA19CA1009751F0D1016D917C91DF
:105670002D8D3E8D620F731F49A15AA158D7BFEFE0
:105680004B1A5B0A6B0A7B0AEDA9FEA93496FEABA6
:10569000EDABA7CF49A85AA86BA87CA8FFEF4F1A7B
:1056A0005F0A6F0A7F0A4DA25EA26FA278A621CF81
:1056B00089859A85AB85BC85892B8A2B8B2B09F430
:1056C0004CC08AE190E0A0E0B0E089839A83AB838C
:1056D000BC8321962EAD3FAD2197C901330FAA0B94
:1056E000BB0B8D879E87AF87B88B4D895E89BE01C6
:1056F0006F5F7F4F8F89988D1AD78B8D9C8D009708
:1057000059F06D897E8941E050E04C0F5D1F640FB8
:10571000751F498D5A8D0BD789A59AA5D701179664
:105720009C938E93169711961C921E92CD2889F108
:1057300084E4889DF001899DF00D1124E75AF84F0B
:1057400080819181A281B3810196A11DB11D8083C9
:105750009183A283B3831DC08C01CD28D1F4012B8A
:10576000C1F084E4889DF001899DF00D1124E55E6F
:10577000F84F81E090E095A784A785E090E0938BB7
:10578000828B07C083E090E0938B828B81E090E076
:10579000A1CDCE5ADF4F0FB6F894DEBF0FBECDBFFE
:1057A000DF91CF911F910F91FF90EF90DF90CF90FD
:1057B000BF90AF909F908F907F906F905F904F9031
:1057C0003F902F900895CF92DF92EF92FF920F9328
:1057D0001F936B017C0184E48C9DF0018D9DF00D85
:1057E0001124E55EF84F82899389009709F450C02F
:1057F0000197B9F482A593A59C012F5F3F4F33A772
:1058000022A7092E000CAA0BBB0B028D138D248D31
:10581000358D80179107A207B307D1F5C701B601EF
:105820001ADB84E48C9DF0018D9DF00D1124E55E62
:10583000F84F82899389039759F582A593A59C0116
:105840002F5F3F4F33A722A7092E000CAA0BBB0BDB
:10585000468D578D60A171A184179507A607B707DC
:10586000BCF086AD97AD93A782A784E090E0938BC0
:10587000828B82AD93ADA4ADB5AD181619061A068C
:105880001B0634F4EE5BFF4F81E090E09183808350
:105890001F910F91FF90EF90DF90CF90089524E437
:1058A000269FF001279FF00D1124E55EF84F8289B5
:1058B00093890497B1F482A593A5019693A782A733
:1058C000092E000CAA0BBB0B46895789608D718D80
:1058D00084179507A607B70721F485E090E0938B1E
:1058E000828B08952F923F924F925F926F927F9298
:1058F0008F929F92AF92BF92CF92DF92EF92FF92E0
:105900000F931F93CF93DF93CDB7DEB72E970FB6CC
:10591000F894DEBF0FBECDBF49835A836B837C836F
:105920004901442E552E24E4249DF001259DF00DBF
:105930001124E55EF84F2288338891012450310903
:10594000158614862230310508F0DDC0DC01119681
:105950001C921E9213961C921E921297A12CB12C8F
:1059600060E070E09F01265F3F4F38872F837F0103
:105970003CE0E30EF11CDF015096BA87A9879F0136
:10598000225F3F4F3C872B87681579050CF06FC06D
:10599000EF81F885A081B1819D012A0D3B1D3E87D5
:1059A0002D87D9012D913C911197232B09F059C0D6
:1059B00018960D911C9119971296ED91FC911397E1
:1059C000FE83ED8316962D913C911797D7014D914B
:1059D0005C91DA01E3E0AA0FBB1FEA95E1F7E985E4
:1059E000FA85C080D180FD01EC0DFD1D440F551FCF
:1059F000AB85BC85CD90DC904C0D5D1DDA016D93BF
:105A00007C93D7014D915C9111974F5F5F4F4D9300
:105A10005C9313830283AD85BE851B963C932E93C6
:105A20001A970217130748F4201B310B3183208388
:105A3000158214821782168214C0AD85BE85149615
:105A4000CD90DC9015974D815E814C0D5D1D401B06
:105A5000510B518340832C193D0935832483D78210
:105A6000C6826F5F7F4FBEE0AB0EB11C8DCF24E4CA
:105A7000249D8001259D100D1124055E184FF8010D
:105A800024853585DC0111963C932E9340895189FC
:105A900013965C934E9312974685578515965C93A3
:105AA0004E931497232BA1F5B5E02B16310481F505
:105AB0001092A307828D938DA48DB58DAE014F5F9B
:105AC0005F4F64E070E08F3F9F4FAF4FBF4F59F47F
:105AD00080E290E00E94C11869817A818B819C816B
